{
  "_format": "hh-sol-artifact-1",
  "contractName": "scuffdbois",
  "sourceName": "contracts/ScuffedBois.sol",
  "abi": [
    {
      "inputs": [
        {
          "internalType": "string",
          "name": "_name",
          "type": "string"
        },
        {
          "internalType": "string",
          "name": "_symbol",
          "type": "string"
        },
        {
          "internalType": "string",
          "name": "_initBaseURI",
          "type": "string"
        },
        {
          "internalType": "string",
          "name": "_initNotRevealedUri",
          "type": "string"
        }
      ],
      "stateMutability": "nonpayable",
      "type": "constructor"
    },
    {
      "anonymous": false,
      "inputs": [
        {
          "indexed": true,
          "internalType": "address",
          "name": "owner",
          "type": "address"
        },
        {
          "indexed": true,
          "internalType": "address",
          "name": "approved",
          "type": "address"
        },
        {
          "indexed": true,
          "internalType": "uint256",
          "name": "tokenId",
          "type": "uint256"
        }
      ],
      "name": "Approval",
      "type": "event"
    },
    {
      "anonymous": false,
      "inputs": [
        {
          "indexed": true,
          "internalType": "address",
          "name": "owner",
          "type": "address"
        },
        {
          "indexed": true,
          "internalType": "address",
          "name": "operator",
          "type": "address"
        },
        {
          "indexed": false,
          "internalType": "bool",
          "name": "approved",
          "type": "bool"
        }
      ],
      "name": "ApprovalForAll",
      "type": "event"
    },
    {
      "anonymous": false,
      "inputs": [
        {
          "indexed": true,
          "internalType": "address",
          "name": "previousOwner",
          "type": "address"
        },
        {
          "indexed": true,
          "internalType": "address",
          "name": "newOwner",
          "type": "address"
        }
      ],
      "name": "OwnershipTransferred",
      "type": "event"
    },
    {
      "anonymous": false,
      "inputs": [
        {
          "indexed": true,
          "internalType": "address",
          "name": "from",
          "type": "address"
        },
        {
          "indexed": true,
          "internalType": "address",
          "name": "to",
          "type": "address"
        },
        {
          "indexed": true,
          "internalType": "uint256",
          "name": "tokenId",
          "type": "uint256"
        }
      ],
      "name": "Transfer",
      "type": "event"
    },
    {
      "inputs": [
        {
          "internalType": "address",
          "name": "to",
          "type": "address"
        },
        {
          "internalType": "uint256",
          "name": "tokenId",
          "type": "uint256"
        }
      ],
      "name": "approve",
      "outputs": [],
      "stateMutability": "nonpayable",
      "type": "function"
    },
    {
      "inputs": [
        {
          "internalType": "address",
          "name": "owner",
          "type": "address"
        }
      ],
      "name": "balanceOf",
      "outputs": [
        {
          "internalType": "uint256",
          "name": "",
          "type": "uint256"
        }
      ],
      "stateMutability": "view",
      "type": "function"
    },
    {
      "inputs": [],
      "name": "baseExtension",
      "outputs": [
        {
          "internalType": "string",
          "name": "",
          "type": "string"
        }
      ],
      "stateMutability": "view",
      "type": "function"
    },
    {
      "inputs": [],
      "name": "cost",
      "outputs": [
        {
          "internalType": "uint256",
          "name": "",
          "type": "uint256"
        }
      ],
      "stateMutability": "view",
      "type": "function"
    },
    {
      "inputs": [
        {
          "internalType": "uint256",
          "name": "tokenId",
          "type": "uint256"
        }
      ],
      "name": "getApproved",
      "outputs": [
        {
          "internalType": "address",
          "name": "",
          "type": "address"
        }
      ],
      "stateMutability": "view",
      "type": "function"
    },
    {
      "inputs": [
        {
          "internalType": "address",
          "name": "owner",
          "type": "address"
        },
        {
          "internalType": "address",
          "name": "operator",
          "type": "address"
        }
      ],
      "name": "isApprovedForAll",
      "outputs": [
        {
          "internalType": "bool",
          "name": "",
          "type": "bool"
        }
      ],
      "stateMutability": "view",
      "type": "function"
    },
    {
      "inputs": [],
      "name": "maxMintAmount",
      "outputs": [
        {
          "internalType": "uint256",
          "name": "",
          "type": "uint256"
        }
      ],
      "stateMutability": "view",
      "type": "function"
    },
    {
      "inputs": [],
      "name": "maxSupply",
      "outputs": [
        {
          "internalType": "uint256",
          "name": "",
          "type": "uint256"
        }
      ],
      "stateMutability": "view",
      "type": "function"
    },
    {
      "inputs": [
        {
          "internalType": "uint256",
          "name": "_mintAmount",
          "type": "uint256"
        }
      ],
      "name": "mint",
      "outputs": [],
      "stateMutability": "payable",
      "type": "function"
    },
    {
      "inputs": [],
      "name": "name",
      "outputs": [
        {
          "internalType": "string",
          "name": "",
          "type": "string"
        }
      ],
      "stateMutability": "view",
      "type": "function"
    },
    {
      "inputs": [],
      "name": "notRevealedUri",
      "outputs": [
        {
          "internalType": "string",
          "name": "",
          "type": "string"
        }
      ],
      "stateMutability": "view",
      "type": "function"
    },
    {
      "inputs": [],
      "name": "owner",
      "outputs": [
        {
          "internalType": "address",
          "name": "",
          "type": "address"
        }
      ],
      "stateMutability": "view",
      "type": "function"
    },
    {
      "inputs": [
        {
          "internalType": "uint256",
          "name": "tokenId",
          "type": "uint256"
        }
      ],
      "name": "ownerOf",
      "outputs": [
        {
          "internalType": "address",
          "name": "",
          "type": "address"
        }
      ],
      "stateMutability": "view",
      "type": "function"
    },
    {
      "inputs": [
        {
          "internalType": "bool",
          "name": "_state",
          "type": "bool"
        }
      ],
      "name": "pause",
      "outputs": [],
      "stateMutability": "nonpayable",
      "type": "function"
    },
    {
      "inputs": [],
      "name": "paused",
      "outputs": [
        {
          "internalType": "bool",
          "name": "",
          "type": "bool"
        }
      ],
      "stateMutability": "view",
      "type": "function"
    },
    {
      "inputs": [],
      "name": "renounceOwnership",
      "outputs": [],
      "stateMutability": "nonpayable",
      "type": "function"
    },
    {
      "inputs": [],
      "name": "reveal",
      "outputs": [],
      "stateMutability": "nonpayable",
      "type": "function"
    },
    {
      "inputs": [],
      "name": "revealed",
      "outputs": [
        {
          "internalType": "bool",
          "name": "",
          "type": "bool"
        }
      ],
      "stateMutability": "view",
      "type": "function"
    },
    {
      "inputs": [
        {
          "internalType": "address",
          "name": "from",
          "type": "address"
        },
        {
          "internalType": "address",
          "name": "to",
          "type": "address"
        },
        {
          "internalType": "uint256",
          "name": "tokenId",
          "type": "uint256"
        }
      ],
      "name": "safeTransferFrom",
      "outputs": [],
      "stateMutability": "nonpayable",
      "type": "function"
    },
    {
      "inputs": [
        {
          "internalType": "address",
          "name": "from",
          "type": "address"
        },
        {
          "internalType": "address",
          "name": "to",
          "type": "address"
        },
        {
          "internalType": "uint256",
          "name": "tokenId",
          "type": "uint256"
        },
        {
          "internalType": "bytes",
          "name": "_data",
          "type": "bytes"
        }
      ],
      "name": "safeTransferFrom",
      "outputs": [],
      "stateMutability": "nonpayable",
      "type": "function"
    },
    {
      "inputs": [
        {
          "internalType": "address",
          "name": "operator",
          "type": "address"
        },
        {
          "internalType": "bool",
          "name": "approved",
          "type": "bool"
        }
      ],
      "name": "setApprovalForAll",
      "outputs": [],
      "stateMutability": "nonpayable",
      "type": "function"
    },
    {
      "inputs": [
        {
          "internalType": "string",
          "name": "_newBaseExtension",
          "type": "string"
        }
      ],
      "name": "setBaseExtension",
      "outputs": [],
      "stateMutability": "nonpayable",
      "type": "function"
    },
    {
      "inputs": [
        {
          "internalType": "string",
          "name": "_newBaseURI",
          "type": "string"
        }
      ],
      "name": "setBaseURI",
      "outputs": [],
      "stateMutability": "nonpayable",
      "type": "function"
    },
    {
      "inputs": [
        {
          "internalType": "uint256",
          "name": "_newCost",
          "type": "uint256"
        }
      ],
      "name": "setCost",
      "outputs": [],
      "stateMutability": "nonpayable",
      "type": "function"
    },
    {
      "inputs": [
        {
          "internalType": "string",
          "name": "_notRevealedURI",
          "type": "string"
        }
      ],
      "name": "setNotRevealedURI",
      "outputs": [],
      "stateMutability": "nonpayable",
      "type": "function"
    },
    {
      "inputs": [
        {
          "internalType": "uint256",
          "name": "_newmaxMintAmount",
          "type": "uint256"
        }
      ],
      "name": "setmaxMintAmount",
      "outputs": [],
      "stateMutability": "nonpayable",
      "type": "function"
    },
    {
      "inputs": [
        {
          "internalType": "bytes4",
          "name": "interfaceId",
          "type": "bytes4"
        }
      ],
      "name": "supportsInterface",
      "outputs": [
        {
          "internalType": "bool",
          "name": "",
          "type": "bool"
        }
      ],
      "stateMutability": "view",
      "type": "function"
    },
    {
      "inputs": [],
      "name": "symbol",
      "outputs": [
        {
          "internalType": "string",
          "name": "",
          "type": "string"
        }
      ],
      "stateMutability": "view",
      "type": "function"
    },
    {
      "inputs": [
        {
          "internalType": "uint256",
          "name": "index",
          "type": "uint256"
        }
      ],
      "name": "tokenByIndex",
      "outputs": [
        {
          "internalType": "uint256",
          "name": "",
          "type": "uint256"
        }
      ],
      "stateMutability": "view",
      "type": "function"
    },
    {
      "inputs": [
        {
          "internalType": "address",
          "name": "owner",
          "type": "address"
        },
        {
          "internalType": "uint256",
          "name": "index",
          "type": "uint256"
        }
      ],
      "name": "tokenOfOwnerByIndex",
      "outputs": [
        {
          "internalType": "uint256",
          "name": "",
          "type": "uint256"
        }
      ],
      "stateMutability": "view",
      "type": "function"
    },
    {
      "inputs": [
        {
          "internalType": "uint256",
          "name": "tokenId",
          "type": "uint256"
        }
      ],
      "name": "tokenURI",
      "outputs": [
        {
          "internalType": "string",
          "name": "",
          "type": "string"
        }
      ],
      "stateMutability": "view",
      "type": "function"
    },
    {
      "inputs": [],
      "name": "totalSupply",
      "outputs": [
        {
          "internalType": "uint256",
          "name": "",
          "type": "uint256"
        }
      ],
      "stateMutability": "view",
      "type": "function"
    },
    {
      "inputs": [
        {
          "internalType": "address",
          "name": "from",
          "type": "address"
        },
        {
          "internalType": "address",
          "name": "to",
          "type": "address"
        },
        {
          "internalType": "uint256",
          "name": "tokenId",
          "type": "uint256"
        }
      ],
      "name": "transferFrom",
      "outputs": [],
      "stateMutability": "nonpayable",
      "type": "function"
    },
    {
      "inputs": [
        {
          "internalType": "address",
          "name": "newOwner",
          "type": "address"
        }
      ],
      "name": "transferOwnership",
      "outputs": [],
      "stateMutability": "nonpayable",
      "type": "function"
    },
    {
      "inputs": [
        {
          "internalType": "address",
          "name": "_owner",
          "type": "address"
        }
      ],
      "name": "walletOfOwner",
      "outputs": [
        {
          "internalType": "uint256[]",
          "name": "",
          "type": "uint256[]"
        }
      ],
      "stateMutability": "view",
      "type": "function"
    },
    {
      "inputs": [],
      "name": "withdraw",
      "outputs": [],
      "stateMutability": "payable",
      "type": "function"
    }
  ],
  "bytecode": "0x60806040526040518060400160405280600581526020017f2e6a736f6e000000000000000000000000000000000000000000000000000000815250600c9080519060200190620000519291906200039b565b506000600d55611b39600e556002600f556001601060006101000a81548160ff0219169083151502179055506000601060016101000a81548160ff021916908315150217905550348015620000a557600080fd5b5060405162004a9d38038062004a9d8339818101604052810190620000cb9190620004bd565b83838160009080519060200190620000e59291906200039b565b508060019080519060200190620000fe9291906200039b565b50505062000121620001156200014d60201b60201c565b6200015560201b60201c565b62000132826200021b60201b60201c565b6200014381620002c660201b60201c565b5050505062000733565b600033905090565b6000600a60009054906101000a900473ffffffffffffffffffffffffffffffffffffffff16905081600a60006101000a81548173ffffffffffffffffffffffffffffffffffffffff021916908373ffffffffffffffffffffffffffffffffffffffff1602179055508173ffffffffffffffffffffffffffffffffffffffff168173ffffffffffffffffffffffffffffffffffffffff167f8be0079c531659141344cd1fd0a4f28419497f9722a3daafe3b4186f6b6457e060405160405180910390a35050565b6200022b6200014d60201b60201c565b73ffffffffffffffffffffffffffffffffffffffff16620002516200037160201b60201c565b73ffffffffffffffffffffffffffffffffffffffff1614620002aa576040517f08c379a0000000000000000000000000000000000000000000000000000000008152600401620002a190620005cf565b60405180910390fd5b80600b9080519060200190620002c29291906200039b565b5050565b620002d66200014d60201b60201c565b73ffffffffffffffffffffffffffffffffffffffff16620002fc6200037160201b60201c565b73ffffffffffffffffffffffffffffffffffffffff161462000355576040517f08c379a00000000000000000000000000000000000000000000000000000000081526004016200034c90620005cf565b60405180910390fd5b80601190805190602001906200036d9291906200039b565b5050565b6000600a60009054906101000a900473ffffffffffffffffffffffffffffffffffffffff16905090565b828054620003a9906200069f565b90600052602060002090601f016020900481019282620003cd576000855562000419565b82601f10620003e857805160ff191683800117855562000419565b8280016001018555821562000419579182015b8281111562000418578251825591602001919060010190620003fb565b5b5090506200042891906200042c565b5090565b5b80821115620004475760008160009055506001016200042d565b5090565b6000620004626200045c8462000625565b620005f1565b9050828152602081018484840111156200047b57600080fd5b6200048884828562000669565b509392505050565b600082601f830112620004a257600080fd5b8151620004b48482602086016200044b565b91505092915050565b60008060008060808587031215620004d457600080fd5b600085015167ffffffffffffffff811115620004ef57600080fd5b620004fd8782880162000490565b945050602085015167ffffffffffffffff8111156200051b57600080fd5b620005298782880162000490565b935050604085015167ffffffffffffffff8111156200054757600080fd5b620005558782880162000490565b925050606085015167ffffffffffffffff8111156200057357600080fd5b620005818782880162000490565b91505092959194509250565b60006200059c60208362000658565b91507f4f776e61626c653a2063616c6c6572206973206e6f7420746865206f776e65726000830152602082019050919050565b60006020820190508181036000830152620005ea816200058d565b9050919050565b6000604051905081810181811067ffffffffffffffff821117156200061b576200061a62000704565b5b8060405250919050565b600067ffffffffffffffff82111562000643576200064262000704565b5b601f19601f8301169050602081019050919050565b600082825260208201905092915050565b60005b83811015620006895780820151818401526020810190506200066c565b8381111562000699576000848401525b50505050565b60006002820490506001821680620006b857607f821691505b60208210811415620006cf57620006ce620006d5565b5b50919050565b7f4e487b7100000000000000000000000000000000000000000000000000000000600052602260045260246000fd5b7f4e487b7100000000000000000000000000000000000000000000000000000000600052604160045260246000fd5b61435a80620007436000396000f3fe60806040526004361061020f5760003560e01c80635c975abb11610118578063a475b5dd116100a0578063d5abeb011161006f578063d5abeb011461076f578063da3ef23f1461079a578063e985e9c5146107c3578063f2c4ce1e14610800578063f2fde38b146108295761020f565b8063a475b5dd146106c7578063b88d4fde146106de578063c668286214610707578063c87b56dd146107325761020f565b80637f00c7a6116100e75780637f00c7a6146106035780638da5cb5b1461062c57806395d89b4114610657578063a0712d6814610682578063a22cb4651461069e5761020f565b80635c975abb146105475780636352211e1461057257806370a08231146105af578063715018a6146105ec5761020f565b806323b872dd1161019b578063438b63001161016a578063438b63001461045057806344a0d68a1461048d5780634f6ccce7146104b657806351830227146104f357806355f804b31461051e5761020f565b806323b872dd146103b75780632f745c59146103e05780633ccfd60b1461041d57806342842e0e146104275761020f565b8063081c8c44116101e2578063081c8c44146102e2578063095ea7b31461030d57806313faede61461033657806318160ddd14610361578063239c70ae1461038c5761020f565b806301ffc9a71461021457806302329a291461025157806306fdde031461027a578063081812fc146102a5575b600080fd5b34801561022057600080fd5b5061023b600480360381019061023691906131b2565b610852565b6040516102489190613bbf565b60405180910390f35b34801561025d57600080fd5b5061027860048036038101906102739190613189565b6108cc565b005b34801561028657600080fd5b5061028f610965565b60405161029c9190613bda565b60405180910390f35b3480156102b157600080fd5b506102cc60048036038101906102c79190613245565b6109f7565b6040516102d99190613b36565b60405180910390f35b3480156102ee57600080fd5b506102f7610a7c565b6040516103049190613bda565b60405180910390f35b34801561031957600080fd5b50610334600480360381019061032f919061314d565b610b0a565b005b34801561034257600080fd5b5061034b610c22565b6040516103589190613e3c565b60405180910390f35b34801561036d57600080fd5b50610376610c28565b6040516103839190613e3c565b60405180910390f35b34801561039857600080fd5b506103a1610c35565b6040516103ae9190613e3c565b60405180910390f35b3480156103c357600080fd5b506103de60048036038101906103d99190613047565b610c3b565b005b3480156103ec57600080fd5b506104076004803603810190610402919061314d565b610c9b565b6040516104149190613e3c565b60405180910390f35b610425610d40565b005b34801561043357600080fd5b5061044e60048036038101906104499190613047565b610e3c565b005b34801561045c57600080fd5b5061047760048036038101906104729190612fe2565b610e5c565b6040516104849190613b9d565b60405180910390f35b34801561049957600080fd5b506104b460048036038101906104af9190613245565b610f56565b005b3480156104c257600080fd5b506104dd60048036038101906104d89190613245565b610fdc565b6040516104ea9190613e3c565b60405180910390f35b3480156104ff57600080fd5b50610508611073565b6040516105159190613bbf565b60405180910390f35b34801561052a57600080fd5b5061054560048036038101906105409190613204565b611086565b005b34801561055357600080fd5b5061055c61111c565b6040516105699190613bbf565b60405180910390f35b34801561057e57600080fd5b5061059960048036038101906105949190613245565b61112f565b6040516105a69190613b36565b60405180910390f35b3480156105bb57600080fd5b506105d660048036038101906105d19190612fe2565b6111e1565b6040516105e39190613e3c565b60405180910390f35b3480156105f857600080fd5b50610601611299565b005b34801561060f57600080fd5b5061062a60048036038101906106259190613245565b611321565b005b34801561063857600080fd5b506106416113a7565b60405161064e9190613b36565b60405180910390f35b34801561066357600080fd5b5061066c6113d1565b6040516106799190613bda565b60405180910390f35b61069c60048036038101906106979190613245565b611463565b005b3480156106aa57600080fd5b506106c560048036038101906106c09190613111565b61154f565b005b3480156106d357600080fd5b506106dc6116d0565b005b3480156106ea57600080fd5b5061070560048036038101906107009190613096565b611769565b005b34801561071357600080fd5b5061071c6117cb565b6040516107299190613bda565b60405180910390f35b34801561073e57600080fd5b5061075960048036038101906107549190613245565b611859565b6040516107669190613bda565b60405180910390f35b34801561077b57600080fd5b506107846119b2565b6040516107919190613e3c565b60405180910390f35b3480156107a657600080fd5b506107c160048036038101906107bc9190613204565b6119b8565b005b3480156107cf57600080fd5b506107ea60048036038101906107e5919061300b565b611a4e565b6040516107f79190613bbf565b60405180910390f35b34801561080c57600080fd5b5061082760048036038101906108229190613204565b611ae2565b005b34801561083557600080fd5b50610850600480360381019061084b9190612fe2565b611b78565b005b60007f780e9d63000000000000000000000000000000000000000000000000000000007bffffffffffffffffffffffffffffffffffffffffffffffffffffffff1916827bffffffffffffffffffffffffffffffffffffffffffffffffffffffff191614806108c557506108c482611c70565b5b9050919050565b6108d4611d52565b73ffffffffffffffffffffffffffffffffffffffff166108f26113a7565b73ffffffffffffffffffffffffffffffffffffffff1614610948576040517f08c379a000000000000000000000000000000000000000000000000000000000815260040161093f90613d7c565b60405180910390fd5b80601060006101000a81548160ff02191690831515021790555050565b6060600080546109749061414f565b80601f01602080910402602001604051908101604052809291908181526020018280546109a09061414f565b80156109ed5780601f106109c2576101008083540402835291602001916109ed565b820191906000526020600020905b8154815290600101906020018083116109d057829003601f168201915b5050505050905090565b6000610a0282611d5a565b610a41576040517f08c379a0000000000000000000000000000000000000000000000000000000008152600401610a3890613d5c565b60405180910390fd5b6004600083815260200190815260200160002060009054906101000a900473ffffffffffffffffffffffffffffffffffffffff169050919050565b60118054610a899061414f565b80601f0160208091040260200160405190810160405280929190818152602001828054610ab59061414f565b8015610b025780601f10610ad757610100808354040283529160200191610b02565b820191906000526020600020905b815481529060010190602001808311610ae557829003601f168201915b505050505081565b6000610b158261112f565b90508073ffffffffffffffffffffffffffffffffffffffff168373ffffffffffffffffffffffffffffffffffffffff161415610b86576040517f08c379a0000000000000000000000000000000000000000000000000000000008152600401610b7d90613ddc565b60405180910390fd5b8073ffffffffffffffffffffffffffffffffffffffff16610ba5611d52565b73ffffffffffffffffffffffffffffffffffffffff161480610bd45750610bd381610bce611d52565b611a4e565b5b610c13576040517f08c379a0000000000000000000000000000000000000000000000000000000008152600401610c0a90613cdc565b60405180910390fd5b610c1d8383611dc6565b505050565b600d5481565b6000600880549050905090565b600f5481565b610c4c610c46611d52565b82611e7f565b610c8b576040517f08c379a0000000000000000000000000000000000000000000000000000000008152600401610c8290613dfc565b60405180910390fd5b610c96838383611f5d565b505050565b6000610ca6836111e1565b8210610ce7576040517f08c379a0000000000000000000000000000000000000000000000000000000008152600401610cde90613bfc565b60405180910390fd5b600660008473ffffffffffffffffffffffffffffffffffffffff1673ffffffffffffffffffffffffffffffffffffffff168152602001908152602001600020600083815260200190815260200160002054905092915050565b610d48611d52565b73ffffffffffffffffffffffffffffffffffffffff16610d666113a7565b73ffffffffffffffffffffffffffffffffffffffff1614610dbc576040517f08c379a0000000000000000000000000000000000000000000000000000000008152600401610db390613d7c565b60405180910390fd5b6000610dc66113a7565b73ffffffffffffffffffffffffffffffffffffffff1647604051610de990613b21565b60006040518083038185875af1925050503d8060008114610e26576040519150601f19603f3d011682016040523d82523d6000602084013e610e2b565b606091505b5050905080610e3957600080fd5b50565b610e5783838360405180602001604052806000815250611769565b505050565b60606000610e69836111e1565b905060008167ffffffffffffffff811115610ead577f4e487b7100000000000000000000000000000000000000000000000000000000600052604160045260246000fd5b604051908082528060200260200182016040528015610edb5781602001602082028036833780820191505090505b50905060005b82811015610f4b57610ef38582610c9b565b828281518110610f2c577f4e487b7100000000000000000000000000000000000000000000000000000000600052603260045260246000fd5b6020026020010181815250508080610f4390614181565b915050610ee1565b508092505050919050565b610f5e611d52565b73ffffffffffffffffffffffffffffffffffffffff16610f7c6113a7565b73ffffffffffffffffffffffffffffffffffffffff1614610fd2576040517f08c379a0000000000000000000000000000000000000000000000000000000008152600401610fc990613d7c565b60405180910390fd5b80600d8190555050565b6000610fe6610c28565b8210611027576040517f08c379a000000000000000000000000000000000000000000000000000000000815260040161101e90613e1c565b60405180910390fd5b60088281548110611061577f4e487b7100000000000000000000000000000000000000000000000000000000600052603260045260246000fd5b90600052602060002001549050919050565b601060019054906101000a900460ff1681565b61108e611d52565b73ffffffffffffffffffffffffffffffffffffffff166110ac6113a7565b73ffffffffffffffffffffffffffffffffffffffff1614611102576040517f08c379a00000000000000000000000000000000000000000000000000000000081526004016110f990613d7c565b60405180910390fd5b80600b9080519060200190611118929190612e06565b5050565b601060009054906101000a900460ff1681565b6000806002600084815260200190815260200160002060009054906101000a900473ffffffffffffffffffffffffffffffffffffffff169050600073ffffffffffffffffffffffffffffffffffffffff168173ffffffffffffffffffffffffffffffffffffffff1614156111d8576040517f08c379a00000000000000000000000000000000000000000000000000000000081526004016111cf90613d1c565b60405180910390fd5b80915050919050565b60008073ffffffffffffffffffffffffffffffffffffffff168273ffffffffffffffffffffffffffffffffffffffff161415611252576040517f08c379a000000000000000000000000000000000000000000000000000000000815260040161124990613cfc565b60405180910390fd5b600360008373ffffffffffffffffffffffffffffffffffffffff1673ffffffffffffffffffffffffffffffffffffffff168152602001908152602001600020549050919050565b6112a1611d52565b73ffffffffffffffffffffffffffffffffffffffff166112bf6113a7565b73ffffffffffffffffffffffffffffffffffffffff1614611315576040517f08c379a000000000000000000000000000000000000000000000000000000000815260040161130c90613d7c565b60405180910390fd5b61131f60006121b9565b565b611329611d52565b73ffffffffffffffffffffffffffffffffffffffff166113476113a7565b73ffffffffffffffffffffffffffffffffffffffff161461139d576040517f08c379a000000000000000000000000000000000000000000000000000000000815260040161139490613d7c565b60405180910390fd5b80600f8190555050565b6000600a60009054906101000a900473ffffffffffffffffffffffffffffffffffffffff16905090565b6060600180546113e09061414f565b80601f016020809104026020016040519081016040528092919081815260200182805461140c9061414f565b80156114595780601f1061142e57610100808354040283529160200191611459565b820191906000526020600020905b81548152906001019060200180831161143c57829003601f168201915b5050505050905090565b600061146d610c28565b9050601060009054906101000a900460ff161561148957600080fd5b6000821161149657600080fd5b600f548211156114a557600080fd5b600e5482826114b49190613f84565b11156114bf57600080fd5b6114c76113a7565b73ffffffffffffffffffffffffffffffffffffffff163373ffffffffffffffffffffffffffffffffffffffff16146115145781600d54611507919061400b565b34101561151357600080fd5b5b6000600190505b82811161154a576115373382846115329190613f84565b61227f565b808061154290614181565b91505061151b565b505050565b611557611d52565b73ffffffffffffffffffffffffffffffffffffffff168273ffffffffffffffffffffffffffffffffffffffff1614156115c5576040517f08c379a00000000000000000000000000000000000000000000000000000000081526004016115bc90613c9c565b60405180910390fd5b80600560006115d2611d52565b73ffffffffffffffffffffffffffffffffffffffff1673ffffffffffffffffffffffffffffffffffffffff16815260200190815260200160002060008473ffffffffffffffffffffffffffffffffffffffff1673ffffffffffffffffffffffffffffffffffffffff16815260200190815260200160002060006101000a81548160ff0219169083151502179055508173ffffffffffffffffffffffffffffffffffffffff1661167f611d52565b73ffffffffffffffffffffffffffffffffffffffff167f17307eab39ab6107e8899845ad3d59bd9653f200f220920489ca2b5937696c31836040516116c49190613bbf565b60405180910390a35050565b6116d8611d52565b73ffffffffffffffffffffffffffffffffffffffff166116f66113a7565b73ffffffffffffffffffffffffffffffffffffffff161461174c576040517f08c379a000000000000000000000000000000000000000000000000000000000815260040161174390613d7c565b60405180910390fd5b6001601060016101000a81548160ff021916908315150217905550565b61177a611774611d52565b83611e7f565b6117b9576040517f08c379a00000000000000000000000000000000000000000000000000000000081526004016117b090613dfc565b60405180910390fd5b6117c58484848461229d565b50505050565b600c80546117d89061414f565b80601f01602080910402602001604051908101604052809291908181526020018280546118049061414f565b80156118515780601f1061182657610100808354040283529160200191611851565b820191906000526020600020905b81548152906001019060200180831161183457829003601f168201915b505050505081565b606061186482611d5a565b6118a3576040517f08c379a000000000000000000000000000000000000000000000000000000000815260040161189a90613dbc565b60405180910390fd5b60001515601060019054906101000a900460ff161515141561195157601180546118cc9061414f565b80601f01602080910402602001604051908101604052809291908181526020018280546118f89061414f565b80156119455780601f1061191a57610100808354040283529160200191611945565b820191906000526020600020905b81548152906001019060200180831161192857829003601f168201915b505050505090506119ad565b600061195b6122f9565b9050600081511161197b57604051806020016040528060008152506119a9565b806119858461238b565b600c60405160200161199993929190613af0565b6040516020818303038152906040525b9150505b919050565b600e5481565b6119c0611d52565b73ffffffffffffffffffffffffffffffffffffffff166119de6113a7565b73ffffffffffffffffffffffffffffffffffffffff1614611a34576040517f08c379a0000000000000000000000000000000000000000000000000000000008152600401611a2b90613d7c565b60405180910390fd5b80600c9080519060200190611a4a929190612e06565b5050565b6000600560008473ffffffffffffffffffffffffffffffffffffffff1673ffffffffffffffffffffffffffffffffffffffff16815260200190815260200160002060008373ffffffffffffffffffffffffffffffffffffffff1673ffffffffffffffffffffffffffffffffffffffff16815260200190815260200160002060009054906101000a900460ff16905092915050565b611aea611d52565b73ffffffffffffffffffffffffffffffffffffffff16611b086113a7565b73ffffffffffffffffffffffffffffffffffffffff1614611b5e576040517f08c379a0000000000000000000000000000000000000000000000000000000008152600401611b5590613d7c565b60405180910390fd5b8060119080519060200190611b74929190612e06565b5050565b611b80611d52565b73ffffffffffffffffffffffffffffffffffffffff16611b9e6113a7565b73ffffffffffffffffffffffffffffffffffffffff1614611bf4576040517f08c379a0000000000000000000000000000000000000000000000000000000008152600401611beb90613d7c565b60405180910390fd5b600073ffffffffffffffffffffffffffffffffffffffff168173ffffffffffffffffffffffffffffffffffffffff161415611c64576040517f08c379a0000000000000000000000000000000000000000000000000000000008152600401611c5b90613c3c565b60405180910390fd5b611c6d816121b9565b50565b60007f80ac58cd000000000000000000000000000000000000000000000000000000007bffffffffffffffffffffffffffffffffffffffffffffffffffffffff1916827bffffffffffffffffffffffffffffffffffffffffffffffffffffffff19161480611d3b57507f5b5e139f000000000000000000000000000000000000000000000000000000007bffffffffffffffffffffffffffffffffffffffffffffffffffffffff1916827bffffffffffffffffffffffffffffffffffffffffffffffffffffffff1916145b80611d4b5750611d4a82612538565b5b9050919050565b600033905090565b60008073ffffffffffffffffffffffffffffffffffffffff166002600084815260200190815260200160002060009054906101000a900473ffffffffffffffffffffffffffffffffffffffff1673ffffffffffffffffffffffffffffffffffffffff1614159050919050565b816004600083815260200190815260200160002060006101000a81548173ffffffffffffffffffffffffffffffffffffffff021916908373ffffffffffffffffffffffffffffffffffffffff160217905550808273ffffffffffffffffffffffffffffffffffffffff16611e398361112f565b73ffffffffffffffffffffffffffffffffffffffff167f8c5be1e5ebec7d5bd14f71427d1e84f3dd0314c0f7b2291e5b200ac8c7c3b92560405160405180910390a45050565b6000611e8a82611d5a565b611ec9576040517f08c379a0000000000000000000000000000000000000000000000000000000008152600401611ec090613cbc565b60405180910390fd5b6000611ed48361112f565b90508073ffffffffffffffffffffffffffffffffffffffff168473ffffffffffffffffffffffffffffffffffffffff161480611f4357508373ffffffffffffffffffffffffffffffffffffffff16611f2b846109f7565b73ffffffffffffffffffffffffffffffffffffffff16145b80611f545750611f538185611a4e565b5b91505092915050565b8273ffffffffffffffffffffffffffffffffffffffff16611f7d8261112f565b73ffffffffffffffffffffffffffffffffffffffff1614611fd3576040517f08c379a0000000000000000000000000000000000000000000000000000000008152600401611fca90613d9c565b60405180910390fd5b600073ffffffffffffffffffffffffffffffffffffffff168273ffffffffffffffffffffffffffffffffffffffff161415612043576040517f08c379a000000000000000000000000000000000000000000000000000000000815260040161203a90613c7c565b60405180910390fd5b61204e8383836125a2565b612059600082611dc6565b6001600360008573ffffffffffffffffffffffffffffffffffffffff1673ffffffffffffffffffffffffffffffffffffffff16815260200190815260200160002060008282546120a99190614065565b925050819055506001600360008473ffffffffffffffffffffffffffffffffffffffff1673ffffffffffffffffffffffffffffffffffffffff16815260200190815260200160002060008282546121009190613f84565b92505081905550816002600083815260200190815260200160002060006101000a81548173ffffffffffffffffffffffffffffffffffffffff021916908373ffffffffffffffffffffffffffffffffffffffff160217905550808273ffffffffffffffffffffffffffffffffffffffff168473ffffffffffffffffffffffffffffffffffffffff167fddf252ad1be2c89b69c2b068fc378daa952ba7f163c4a11628f55a4df523b3ef60405160405180910390a4505050565b6000600a60009054906101000a900473ffffffffffffffffffffffffffffffffffffffff16905081600a60006101000a81548173ffffffffffffffffffffffffffffffffffffffff021916908373ffffffffffffffffffffffffffffffffffffffff1602179055508173ffffffffffffffffffffffffffffffffffffffff168173ffffffffffffffffffffffffffffffffffffffff167f8be0079c531659141344cd1fd0a4f28419497f9722a3daafe3b4186f6b6457e060405160405180910390a35050565b6122998282604051806020016040528060008152506126b6565b5050565b6122a8848484611f5d565b6122b484848484612711565b6122f3576040517f08c379a00000000000000000000000000000000000000000000000000000000081526004016122ea90613c1c565b60405180910390fd5b50505050565b6060600b80546123089061414f565b80601f01602080910402602001604051908101604052809291908181526020018280546123349061414f565b80156123815780601f1061235657610100808354040283529160200191612381565b820191906000526020600020905b81548152906001019060200180831161236457829003601f168201915b5050505050905090565b606060008214156123d3576040518060400160405280600181526020017f30000000000000000000000000000000000000000000000000000000000000008152509050612533565b600082905060005b600082146124055780806123ee90614181565b915050600a826123fe9190613fda565b91506123db565b60008167ffffffffffffffff811115612447577f4e487b7100000000000000000000000000000000000000000000000000000000600052604160045260246000fd5b6040519080825280601f01601f1916602001820160405280156124795781602001600182028036833780820191505090505b5090505b6000851461252c576001826124929190614065565b9150600a856124a191906141ca565b60306124ad9190613f84565b60f81b8183815181106124e9577f4e487b7100000000000000000000000000000000000000000000000000000000600052603260045260246000fd5b60200101907effffffffffffffffffffffffffffffffffffffffffffffffffffffffffffff1916908160001a905350600a856125259190613fda565b945061247d565b8093505050505b919050565b60007f01ffc9a7000000000000000000000000000000000000000000000000000000007bffffffffffffffffffffffffffffffffffffffffffffffffffffffff1916827bffffffffffffffffffffffffffffffffffffffffffffffffffffffff1916149050919050565b6125ad8383836128a8565b600073ffffffffffffffffffffffffffffffffffffffff168373ffffffffffffffffffffffffffffffffffffffff1614156125f0576125eb816128ad565b61262f565b8173ffffffffffffffffffffffffffffffffffffffff168373ffffffffffffffffffffffffffffffffffffffff161461262e5761262d83826128f6565b5b5b600073ffffffffffffffffffffffffffffffffffffffff168273ffffffffffffffffffffffffffffffffffffffff1614156126725761266d81612a63565b6126b1565b8273ffffffffffffffffffffffffffffffffffffffff168273ffffffffffffffffffffffffffffffffffffffff16146126b0576126af8282612ba6565b5b5b505050565b6126c08383612c25565b6126cd6000848484612711565b61270c576040517f08c379a000000000000000000000000000000000000000000000000000000000815260040161270390613c1c565b60405180910390fd5b505050565b60006127328473ffffffffffffffffffffffffffffffffffffffff16612df3565b1561289b578373ffffffffffffffffffffffffffffffffffffffff1663150b7a0261275b611d52565b8786866040518563ffffffff1660e01b815260040161277d9493929190613b51565b602060405180830381600087803b15801561279757600080fd5b505af19250505080156127c857506040513d601f19601f820116820180604052508101906127c591906131db565b60015b61284b573d80600081146127f8576040519150601f19603f3d011682016040523d82523d6000602084013e6127fd565b606091505b50600081511415612843576040517f08c379a000000000000000000000000000000000000000000000000000000000815260040161283a90613c1c565b60405180910390fd5b805181602001fd5b63150b7a0260e01b7bffffffffffffffffffffffffffffffffffffffffffffffffffffffff1916817bffffffffffffffffffffffffffffffffffffffffffffffffffffffff1916149150506128a0565b600190505b949350505050565b505050565b6008805490506009600083815260200190815260200160002081905550600881908060018154018082558091505060019003906000526020600020016000909190919091505550565b60006001612903846111e1565b61290d9190614065565b90506000600760008481526020019081526020016000205490508181146129f2576000600660008673ffffffffffffffffffffffffffffffffffffffff1673ffffffffffffffffffffffffffffffffffffffff168152602001908152602001600020600084815260200190815260200160002054905080600660008773ffffffffffffffffffffffffffffffffffffffff1673ffffffffffffffffffffffffffffffffffffffff168152602001908152602001600020600084815260200190815260200160002081905550816007600083815260200190815260200160002081905550505b6007600084815260200190815260200160002060009055600660008573ffffffffffffffffffffffffffffffffffffffff1673ffffffffffffffffffffffffffffffffffffffff16815260200190815260200160002060008381526020019081526020016000206000905550505050565b60006001600880549050612a779190614065565b9050600060096000848152602001908152602001600020549050600060088381548110612acd577f4e487b7100000000000000000000000000000000000000000000000000000000600052603260045260246000fd5b906000526020600020015490508060088381548110612b15577f4e487b7100000000000000000000000000000000000000000000000000000000600052603260045260246000fd5b906000526020600020018190555081600960008381526020019081526020016000208190555060096000858152602001908152602001600020600090556008805480612b8a577f4e487b7100000000000000000000000000000000000000000000000000000000600052603160045260246000fd5b6001900381819060005260206000200160009055905550505050565b6000612bb1836111e1565b905081600660008573ffffffffffffffffffffffffffffffffffffffff1673ffffffffffffffffffffffffffffffffffffffff168152602001908152602001600020600083815260200190815260200160002081905550806007600084815260200190815260200160002081905550505050565b600073ffffffffffffffffffffffffffffffffffffffff168273ffffffffffffffffffffffffffffffffffffffff161415612c95576040517f08c379a0000000000000000000000000000000000000000000000000000000008152600401612c8c90613d3c565b60405180910390fd5b612c9e81611d5a565b15612cde576040517f08c379a0000000000000000000000000000000000000000000000000000000008152600401612cd590613c5c565b60405180910390fd5b612cea600083836125a2565b6001600360008473ffffffffffffffffffffffffffffffffffffffff1673ffffffffffffffffffffffffffffffffffffffff1681526020019081526020016000206000828254612d3a9190613f84565b92505081905550816002600083815260200190815260200160002060006101000a81548173ffffffffffffffffffffffffffffffffffffffff021916908373ffffffffffffffffffffffffffffffffffffffff160217905550808273ffffffffffffffffffffffffffffffffffffffff16600073ffffffffffffffffffffffffffffffffffffffff167fddf252ad1be2c89b69c2b068fc378daa952ba7f163c4a11628f55a4df523b3ef60405160405180910390a45050565b600080823b905060008111915050919050565b828054612e129061414f565b90600052602060002090601f016020900481019282612e345760008555612e7b565b82601f10612e4d57805160ff1916838001178555612e7b565b82800160010185558215612e7b579182015b82811115612e7a578251825591602001919060010190612e5f565b5b509050612e889190612e8c565b5090565b5b80821115612ea5576000816000905550600101612e8d565b5090565b6000612ebc612eb784613e88565b613e57565b905082815260208101848484011115612ed457600080fd5b612edf84828561410d565b509392505050565b6000612efa612ef584613eb8565b613e57565b905082815260208101848484011115612f1257600080fd5b612f1d84828561410d565b509392505050565b600081359050612f34816142c8565b92915050565b600081359050612f49816142df565b92915050565b600081359050612f5e816142f6565b92915050565b600081519050612f73816142f6565b92915050565b600082601f830112612f8a57600080fd5b8135612f9a848260208601612ea9565b91505092915050565b600082601f830112612fb457600080fd5b8135612fc4848260208601612ee7565b91505092915050565b600081359050612fdc8161430d565b92915050565b600060208284031215612ff457600080fd5b600061300284828501612f25565b91505092915050565b6000806040838503121561301e57600080fd5b600061302c85828601612f25565b925050602061303d85828601612f25565b9150509250929050565b60008060006060848603121561305c57600080fd5b600061306a86828701612f25565b935050602061307b86828701612f25565b925050604061308c86828701612fcd565b9150509250925092565b600080600080608085870312156130ac57600080fd5b60006130ba87828801612f25565b94505060206130cb87828801612f25565b93505060406130dc87828801612fcd565b925050606085013567ffffffffffffffff8111156130f957600080fd5b61310587828801612f79565b91505092959194509250565b6000806040838503121561312457600080fd5b600061313285828601612f25565b925050602061314385828601612f3a565b9150509250929050565b6000806040838503121561316057600080fd5b600061316e85828601612f25565b925050602061317f85828601612fcd565b9150509250929050565b60006020828403121561319b57600080fd5b60006131a984828501612f3a565b91505092915050565b6000602082840312156131c457600080fd5b60006131d284828501612f4f565b91505092915050565b6000602082840312156131ed57600080fd5b60006131fb84828501612f64565b91505092915050565b60006020828403121561321657600080fd5b600082013567ffffffffffffffff81111561323057600080fd5b61323c84828501612fa3565b91505092915050565b60006020828403121561325757600080fd5b600061326584828501612fcd565b91505092915050565b600061327a8383613ad2565b60208301905092915050565b61328f81614099565b82525050565b60006132a082613f0d565b6132aa8185613f3b565b93506132b583613ee8565b8060005b838110156132e65781516132cd888261326e565b97506132d883613f2e565b9250506001810190506132b9565b5085935050505092915050565b6132fc816140ab565b82525050565b600061330d82613f18565b6133178185613f4c565b935061332781856020860161411c565b613330816142b7565b840191505092915050565b600061334682613f23565b6133508185613f68565b935061336081856020860161411c565b613369816142b7565b840191505092915050565b600061337f82613f23565b6133898185613f79565b935061339981856020860161411c565b80840191505092915050565b600081546133b28161414f565b6133bc8186613f79565b945060018216600081146133d757600181146133e85761341b565b60ff1983168652818601935061341b565b6133f185613ef8565b60005b83811015613413578154818901526001820191506020810190506133f4565b838801955050505b50505092915050565b6000613431602b83613f68565b91507f455243373231456e756d657261626c653a206f776e657220696e646578206f7560008301527f74206f6620626f756e64730000000000000000000000000000000000000000006020830152604082019050919050565b6000613497603283613f68565b91507f4552433732313a207472616e7366657220746f206e6f6e20455243373231526560008301527f63656976657220696d706c656d656e74657200000000000000000000000000006020830152604082019050919050565b60006134fd602683613f68565b91507f4f776e61626c653a206e6577206f776e657220697320746865207a65726f206160008301527f64647265737300000000000000000000000000000000000000000000000000006020830152604082019050919050565b6000613563601c83613f68565b91507f4552433732313a20746f6b656e20616c7265616479206d696e746564000000006000830152602082019050919050565b60006135a3602483613f68565b91507f4552433732313a207472616e7366657220746f20746865207a65726f2061646460008301527f72657373000000000000000000000000000000000000000000000000000000006020830152604082019050919050565b6000613609601983613f68565b91507f4552433732313a20617070726f766520746f2063616c6c6572000000000000006000830152602082019050919050565b6000613649602c83613f68565b91507f4552433732313a206f70657261746f7220717565727920666f72206e6f6e657860008301527f697374656e7420746f6b656e00000000000000000000000000000000000000006020830152604082019050919050565b60006136af603883613f68565b91507f4552433732313a20617070726f76652063616c6c6572206973206e6f74206f7760008301527f6e6572206e6f7220617070726f76656420666f7220616c6c00000000000000006020830152604082019050919050565b6000613715602a83613f68565b91507f4552433732313a2062616c616e636520717565727920666f7220746865207a6560008301527f726f2061646472657373000000000000000000000000000000000000000000006020830152604082019050919050565b600061377b602983613f68565b91507f4552433732313a206f776e657220717565727920666f72206e6f6e657869737460008301527f656e7420746f6b656e00000000000000000000000000000000000000000000006020830152604082019050919050565b60006137e1602083613f68565b91507f4552433732313a206d696e7420746f20746865207a65726f20616464726573736000830152602082019050919050565b6000613821602c83613f68565b91507f4552433732313a20617070726f76656420717565727920666f72206e6f6e657860008301527f697374656e7420746f6b656e00000000000000000000000000000000000000006020830152604082019050919050565b6000613887602083613f68565b91507f4f776e61626c653a2063616c6c6572206973206e6f7420746865206f776e65726000830152602082019050919050565b60006138c7602983613f68565b91507f4552433732313a207472616e73666572206f6620746f6b656e2074686174206960008301527f73206e6f74206f776e00000000000000000000000000000000000000000000006020830152604082019050919050565b600061392d602f83613f68565b91507f4552433732314d657461646174613a2055524920717565727920666f72206e6f60008301527f6e6578697374656e7420746f6b656e00000000000000000000000000000000006020830152604082019050919050565b6000613993602183613f68565b91507f4552433732313a20617070726f76616c20746f2063757272656e74206f776e6560008301527f72000000000000000000000000000000000000000000000000000000000000006020830152604082019050919050565b60006139f9600083613f5d565b9150600082019050919050565b6000613a13603183613f68565b91507f4552433732313a207472616e736665722063616c6c6572206973206e6f74206f60008301527f776e6572206e6f7220617070726f7665640000000000000000000000000000006020830152604082019050919050565b6000613a79602c83613f68565b91507f455243373231456e756d657261626c653a20676c6f62616c20696e646578206f60008301527f7574206f6620626f756e647300000000000000000000000000000000000000006020830152604082019050919050565b613adb81614103565b82525050565b613aea81614103565b82525050565b6000613afc8286613374565b9150613b088285613374565b9150613b1482846133a5565b9150819050949350505050565b6000613b2c826139ec565b9150819050919050565b6000602082019050613b4b6000830184613286565b92915050565b6000608082019050613b666000830187613286565b613b736020830186613286565b613b806040830185613ae1565b8181036060830152613b928184613302565b905095945050505050565b60006020820190508181036000830152613bb78184613295565b905092915050565b6000602082019050613bd460008301846132f3565b92915050565b60006020820190508181036000830152613bf4818461333b565b905092915050565b60006020820190508181036000830152613c1581613424565b9050919050565b60006020820190508181036000830152613c358161348a565b9050919050565b60006020820190508181036000830152613c55816134f0565b9050919050565b60006020820190508181036000830152613c7581613556565b9050919050565b60006020820190508181036000830152613c9581613596565b9050919050565b60006020820190508181036000830152613cb5816135fc565b9050919050565b60006020820190508181036000830152613cd58161363c565b9050919050565b60006020820190508181036000830152613cf5816136a2565b9050919050565b60006020820190508181036000830152613d1581613708565b9050919050565b60006020820190508181036000830152613d358161376e565b9050919050565b60006020820190508181036000830152613d55816137d4565b9050919050565b60006020820190508181036000830152613d7581613814565b9050919050565b60006020820190508181036000830152613d958161387a565b9050919050565b60006020820190508181036000830152613db5816138ba565b9050919050565b60006020820190508181036000830152613dd581613920565b9050919050565b60006020820190508181036000830152613df581613986565b9050919050565b60006020820190508181036000830152613e1581613a06565b9050919050565b60006020820190508181036000830152613e3581613a6c565b9050919050565b6000602082019050613e516000830184613ae1565b92915050565b6000604051905081810181811067ffffffffffffffff82111715613e7e57613e7d614288565b5b8060405250919050565b600067ffffffffffffffff821115613ea357613ea2614288565b5b601f19601f8301169050602081019050919050565b600067ffffffffffffffff821115613ed357613ed2614288565b5b601f19601f8301169050602081019050919050565b6000819050602082019050919050565b60008190508160005260206000209050919050565b600081519050919050565b600081519050919050565b600081519050919050565b6000602082019050919050565b600082825260208201905092915050565b600082825260208201905092915050565b600081905092915050565b600082825260208201905092915050565b600081905092915050565b6000613f8f82614103565b9150613f9a83614103565b9250827fffffffffffffffffffffffffffffffffffffffffffffffffffffffffffffffff03821115613fcf57613fce6141fb565b5b828201905092915050565b6000613fe582614103565b9150613ff083614103565b92508261400057613fff61422a565b5b828204905092915050565b600061401682614103565b915061402183614103565b9250817fffffffffffffffffffffffffffffffffffffffffffffffffffffffffffffffff048311821515161561405a576140596141fb565b5b828202905092915050565b600061407082614103565b915061407b83614103565b92508282101561408e5761408d6141fb565b5b828203905092915050565b60006140a4826140e3565b9050919050565b60008115159050919050565b60007fffffffff0000000000000000000000000000000000000000000000000000000082169050919050565b600073ffffffffffffffffffffffffffffffffffffffff82169050919050565b6000819050919050565b82818337600083830152505050565b60005b8381101561413a57808201518184015260208101905061411f565b83811115614149576000848401525b50505050565b6000600282049050600182168061416757607f821691505b6020821081141561417b5761417a614259565b5b50919050565b600061418c82614103565b91507fffffffffffffffffffffffffffffffffffffffffffffffffffffffffffffffff8214156141bf576141be6141fb565b5b600182019050919050565b60006141d582614103565b91506141e083614103565b9250826141f0576141ef61422a565b5b828206905092915050565b7f4e487b7100000000000000000000000000000000000000000000000000000000600052601160045260246000fd5b7f4e487b7100000000000000000000000000000000000000000000000000000000600052601260045260246000fd5b7f4e487b7100000000000000000000000000000000000000000000000000000000600052602260045260246000fd5b7f4e487b7100000000000000000000000000000000000000000000000000000000600052604160045260246000fd5b6000601f19601f8301169050919050565b6142d181614099565b81146142dc57600080fd5b50565b6142e8816140ab565b81146142f357600080fd5b50565b6142ff816140b7565b811461430a57600080fd5b50565b61431681614103565b811461432157600080fd5b5056fea26469706673582212209ca2fd8b05a13b3edd7d916186a8f119df45fc113dcc85c4446c31ae2c511cff64736f6c63430008000033",
  "linkReferences": {},
  "deployedLinkReferences": {}
}